:020000040000FA
:020000000528D1
:040002000034003492
:02000800BD2811
:06000A00831603138801B8
:10001000803087008316031319309900243098002C
:100020008312031390309800831603178901F03070
:1000300086008316031307308100F0309500883066
:100040008B00F030960083120313F0308600870196
:100050008801A0012014A101F201F301F401F501CE
:10006000313099008C1A8720751C7A280F30740261
:1000700003197C280C307402031987150D307402A3
:100080000319871175100530740203184928721579
:10009000542872110930740203187A284F282C3022
:1000A000740799000430F402721C6B2872197A28C4
:1000B0007408A0002102031D7A2807108710F21887
:1000C0007A28F2143D3081000A30FA00A2000B11A8
:1000D0008B1607157A287408A100200203197A28C4
:1000E0007214031874287728071487107A280710C9
:1000F00087147A2883203228071587150710871060
:1001000045309900812820088E20880008001A08B0
:10011000A30040302302F4007514080082073F3426
:1001200006345B344F3466346D347D3407347F34A9
:100130006F3477347C3439345E34793471348207E7
:100140000434043408340C340334033407340D34D9
:100150000234023406340E340134013405340F34D1
:10016000D230F6000330F7000130F800F80BB62863
:10017000F70BB428F60BB2280800F000030EF100CC
:100180000B19E5280B1CFC28F9010F30F3000310B4
:10019000F30D73088600061EDC28F90A861EDC288B
:1001A000F90A061FDC28F90A861FDC28F90A103034
:1001B0007902031DC728E128B020751479089F2013
:1001C000F400831203130B10FC280B11F21CFC2803
:1001D000FA0BEB28EE283D308100FC28A20BF12819
:1001E000F9280A30FA00071DF7280711F828071523
:1001F000FC2807118B12F201710E8300F00E700EB5
:020200000900F3
:02400E00F12F90
:02401000FF3F70
:00000001FF
