:020000040000FA
:020000000528D1
:040002000034003492
:020008005A2874
:06000A00831603138801B8
:1000100080308700831603178901F030860083162D
:1000200003130F308100F030950088308B00F030E2
:10003000960083120313F030860087018801F201D5
:10004000F301F401F501F601F701272025287708CF
:100050002B208800080082073F3406345B344F347D
:1000600066346D347D3407347F346F3477347C34B8
:1000700039345E347934713482070A3400340B34F5
:100080000C340134023403340D34043405340634A2
:100090000E340734083409340F34D230F8000330FA
:1000A000F9000130FA00FA0B5328F90B5128F80B2C
:1000B0004F280800F000030EF1000B1C9228FB01F2
:1000C0000F30F6000310F60D76088600061E77281E
:1000D000FB0A861E7728FB0A061F7728FB0A861F65
:1000E0007728FB0A10307B02031D62288F284D20E1
:1000F0007B083C20F7000F307702031988280A306C
:100100007702031987150B307702031987118F289F
:100110008B120B1181010710071007158715831229
:0E01200003130B10710E8300F00E700E090019
:02400E00F12F90
:02401000FF3F70
:00000001FF
