:020000040000FA
:020000000528D1
:040002000034003492
:020008005D2871
:06000A00831603138801B8
:1000100080308700831603178901F030860083162D
:1000200003130F308100F030950088308B00F030E2
:10003000960083120313F030860087018801F201D5
:10004000F301F501F601F701F801FD012830FE008A
:100050002A20282872082E208800080082073F34B2
:1000600006345B344F3466346D347D3407347F346A
:100070006F3477347C3439345E34793471348207A8
:100080000A3400340B340C340134023403340D349C
:100090000434053406340E340734083409340F347C
:1000A000D230F9000330FA000130FB00FB0B562878
:1000B000FA0B5428F90B52280800F000030EF10047
:1000C0000B19C1280B1CD128FC010F30F7000310BD
:1000D000F70D77088600061E7C28FC0A861E7C2801
:1000E000FC0A061F7C28FC0A861F7C28FC0A1030AC
:1000F0007C02031D6728BD2850207C083F20F800A3
:100100000F3078020319B6280A30780203198715D0
:100110000B307802031987110E30780203190000A2
:100120000D307802031900000C307802031900002A
:100130007518BD28F5097808F30072087302F400F9
:100140000319BD280318A528A82807148710AD286F
:10015000F409F40A07108714AD282830FD07F40BC2
:10016000AD283D3081008B160B11BD288B120B1171
:1001700081010710071007158715831203130B1051
:10018000D128751CCE28FE0BCB28FD0BCE28F509F7
:10019000071007108B12F20A2830FE003D30810054
:0C01A0000B11710E8300F00E700E0900B0
:02400E00F12F90
:02401000FF3F70
:00000001FF
