:020000040000FA
:020000000528D1
:040002000034003492
:02000800AA2824
:06000A00831603138801B8
:100010008701831603131930990024309800831246
:10002000031380309800831603178901F03086008F
:100030008316031307308100F030950088308B0061
:10004000F030960083120313F03086008701880198
:10005000A0012014A101F201F301F401F5013130F6
:100060009900751C6F280F307402031971287510E0
:100070000530740203183E287215492872110930A0
:1000800074020318492844282C307407990004305E
:10009000F402721C602872196F287408A0002102F3
:1000A000031D6F2807108710F2186F28F2143D30D7
:1000B00081001430FA000530A2000B118B166F2856
:1000C0007408A100200203196F287214031869280C
:1000D0006C28071487106F28071087146F28772063
:1000E000312807150710871045309900752820081A
:1000F0007B208800080082073F3406345B344F348D
:1001000066346D347D3407347F346F3477347C3417
:1001100039345E3479347134820704340434083459
:100120000C340334033407340D34023402340634FF
:100130000E340134013405340F34D230F60003306C
:10014000F7000130F800F80BA328F70BA128F60BF5
:100150009F280800F000030EF1000B19D2280B1C99
:10016000DF28F9010F30F3000310F30D7308860048
:10017000061EC928F90A861EC928F90A061FC928B9
:10018000F90A861FC928F90A10307902031DB4281C
:10019000CE289D20751479088C20F4008312031357
:1001A0000B10DF280B11F21CDF28FA0BD828DC28F3
:1001B00007153D308100DF2807118B12F201710E07
:0801C0008300F00E700E09002F
:02400E00F12F90
:02401000FF3F70
:00000001FF
