:020000040000FA
:020000000528D1
:040002000034003492
:0200080094283A
:06000A00831603138801B8
:1000100080308700831603178901F030860083162D
:10002000031307308100F030950088308B00F030EA
:10003000960083120313F030860087018801F201D5
:100040007214F301F401F501F601F701771C5D2844
:100050000F30760203195F287710053076020318F7
:100060003228392809307602031839283728043015
:10007000F602741C4E287608F2007302031D5D28F8
:1000800007108710F4185D28F4143D3081001430F7
:10009000FC000530FD000B118B165D287608F3007F
:1000A000720203195D287414031857285A2807147C
:1000B00087105D28071087145D2861202628071502
:1000C0002628720865208800080082073F3406341D
:1000D0005B344F3466346D347D3407347F346F3491
:1000E00077347C3439345E347934713482070A349D
:1000F00000340B340C340734083409340D34043420
:10010000053406340E340134023403340F34D23053
:10011000F8000330F9000130FA00FA0B8D28F90BD2
:100120008B28F80B89280800F000030EF1000B194A
:10013000BC280B1CCA28FB010F30F5000310F50D7D
:1001400075088600061EB328FB0A861EB328FB0A24
:10015000061FB328FB0A861FB328FB0A10307B0258
:10016000031D9E28B828872077147B087620F60088
:10017000831203130B10CA280B11F41CCA28FC0BA2
:10018000C228C62807153D308100CA2807118B12E6
:0E0190007410F410710E8300F00E700E090052
:02400E00F12F90
:02401000FF3F70
:00000001FF
