:020000040000FA
:020000000528D1
:040002000034003492
:02000800B4281A
:06000A00831603138801B8
:10001000803087008316031319309900243098002C
:100020008312031390309800831603178901F03070
:1000300086008316031307308100F0309500883066
:100040008B00F030960083120313F0308600870196
:100050008801A0012014A101F201F301F401F501CE
:10006000313099008C1A7E20751C72280F30740272
:10007000031974287510053074020318412872158D
:100080004C2872110930740203184C2847282C3070
:10009000740799000430F402721C632872197228E4
:1000A0007408A0002102031D722807108710F2189F
:1000B0007228F2143D3081000A30FA00A2000B11C0
:1000C0008B16071572287408A100200203197228E4
:1000D000721403186C286F280714871072280710F1
:1000E000871472287A2032280715071087104530A8
:1000F0009900782820088520880008001A08A300A5
:1001000040302302F4007514080082073F3406349F
:100110005B344F3466346D347D3407347F346F3450
:1001200077347C3439345E34793471348207043462
:10013000043408340C340334033407340D340234EB
:10014000023406340E340134013405340F34D23015
:10015000F6000330F7000130F800F80BAD28F70B7C
:10016000AB28F60BA9280800F000030EF1000B19CC
:10017000DC280B1CF328F9010F30F3000310F30DFA
:1001800073088600061ED328F90A861ED328F90AAA
:10019000061FD328F90A861FD328F90A10307902DE
:1001A000031DBE28D828A720751479089620F400CE
:1001B000831203130B10F3280B11F21CF328FA0B14
:1001C000E228E5283D308100F328A20BE828F0283A
:1001D0000A30FA00071DEE280711EF280715F3284B
:1001E00007118B12F201710E8300F00E700E0900E0
:02400E00F12F90
:02401000FF3F70
:00000001FF
