:020000040000FA
:020000000528D1
:040002000034003492
:02000800672867
:06000A00831603138801B8
:1000100080308700831603178901F030860083162D
:1000200003130F308100F030950088308B00F030E2
:10003000960083120313F030860087018801F201D5
:10004000F301F501F601F701F801781805307702A0
:1000500003182B2832280930770203183228302859
:100060000430F7023420252877083820880008005B
:1000700082073F3406345B344F3466346D347D344C
:1000800007347F346F3477347C3439345E347934D8
:10009000713482070A3400340B340C3407340834CA
:1000A00009340D340434053406340E34013402347A
:1000B00003340F34D230F9000330FA000130FB0072
:1000C000FB0B6028FA0B5E28F90B5C280800F00097
:1000D000030EF1000B1C8D287814FC010F30F60084
:1000E0000310F60D76088600061E8528FC0A861E7B
:1000F0008528FC0A061F8528FC0A861F8528FC0A1D
:1001000010307C02031D702889285A207C08492061
:10011000F700831203130B108D28710E8300F00E6D
:04012000700E090054
:02400E00F12F90
:02401000FF3F70
:00000001FF
